{
  "contractName": "StarNotary",
  "abi": [
    {
      "inputs": [],
      "payable": false,
      "stateMutability": "nonpayable",
      "type": "constructor"
    },
    {
      "anonymous": false,
      "inputs": [
        {
          "indexed": false,
          "internalType": "string",
          "name": "changedName",
          "type": "string"
        }
      ],
      "name": "newStarName",
      "type": "event"
    },
    {
      "anonymous": false,
      "inputs": [
        {
          "indexed": false,
          "internalType": "address",
          "name": "owner",
          "type": "address"
        }
      ],
      "name": "starClaimed",
      "type": "event"
    },
    {
      "constant": true,
      "inputs": [],
      "name": "starName",
      "outputs": [
        {
          "internalType": "string",
          "name": "",
          "type": "string"
        }
      ],
      "payable": false,
      "stateMutability": "view",
      "type": "function"
    },
    {
      "constant": true,
      "inputs": [],
      "name": "starOwner",
      "outputs": [
        {
          "internalType": "address",
          "name": "",
          "type": "address"
        }
      ],
      "payable": false,
      "stateMutability": "view",
      "type": "function"
    },
    {
      "constant": false,
      "inputs": [
        {
          "internalType": "string",
          "name": "_name",
          "type": "string"
        }
      ],
      "name": "changeName",
      "outputs": [],
      "payable": false,
      "stateMutability": "nonpayable",
      "type": "function"
    },
    {
      "constant": false,
      "inputs": [],
      "name": "claimStar",
      "outputs": [],
      "payable": false,
      "stateMutability": "nonpayable",
      "type": "function"
    }
  ],
  "bytecode": "0x608060405234801561001057600080fd5b506040518060400160405280601481526020017f417765736f6d65205564616369747920537461720000000000000000000000008152506000908051906020019061005c929190610062565b50610107565b828054600181600116156101000203166002900490600052602060002090601f016020900481019282601f106100a357805160ff19168380011785556100d1565b828001600101855582156100d1579182015b828111156100d05782518255916020019190600101906100b5565b5b5090506100de91906100e2565b5090565b61010491905b808211156101005760008160009055506001016100e8565b5090565b90565b610441806101166000396000f3fe608060405234801561001057600080fd5b506004361061004c5760003560e01c80635353a2d81461005157806388d5896c1461010c578063a434c2721461018f578063c5946ae0146101d9575b600080fd5b61010a6004803603602081101561006757600080fd5b810190808035906020019064010000000081111561008457600080fd5b82018360208201111561009657600080fd5b803590602001918460018302840111640100000000831117156100b857600080fd5b91908080601f016020809104026020016040519081016040528093929190818152602001838380828437600081840152601f19601f8201169050808301925050505050505091929192905050506101e3565b005b6101146101fd565b6040518080602001828103825283818151815260200191508051906020019080838360005b83811015610154578082015181840152602081019050610139565b50505050905090810190601f1680156101815780820380516001836020036101000a031916815260200191505b509250505060405180910390f35b61019761029b565b604051808273ffffffffffffffffffffffffffffffffffffffff1673ffffffffffffffffffffffffffffffffffffffff16815260200191505060405180910390f35b6101e16102c1565b005b80600090805190602001906101f9929190610367565b5050565b60008054600181600116156101000203166002900480601f0160208091040260200160405190810160405280929190818152602001828054600181600116156101000203166002900480156102935780601f1061026857610100808354040283529160200191610293565b820191906000526020600020905b81548152906001019060200180831161027657829003601f168201915b505050505081565b600160009054906101000a900473ffffffffffffffffffffffffffffffffffffffff1681565b33600160006101000a81548173ffffffffffffffffffffffffffffffffffffffff021916908373ffffffffffffffffffffffffffffffffffffffff1602179055507feb7b62b344bb3f85b6845f47ddc7878c8fc9946b9c4a4aacbd5274c883e9b66a33604051808273ffffffffffffffffffffffffffffffffffffffff1673ffffffffffffffffffffffffffffffffffffffff16815260200191505060405180910390a1565b828054600181600116156101000203166002900490600052602060002090601f016020900481019282601f106103a857805160ff19168380011785556103d6565b828001600101855582156103d6579182015b828111156103d55782518255916020019190600101906103ba565b5b5090506103e391906103e7565b5090565b61040991905b808211156104055760008160009055506001016103ed565b5090565b9056fea265627a7a72315820bf93878e04c669ab4b9d86eeedbd785aaced1f2d2f2096748d26bc9d5ba799c064736f6c63430005100032",
  "source": "pragma solidity >=0.4.24;\r\n\r\ncontract StarNotary {\r\n\r\n    string public starName;\r\n    address public starOwner;\r\n\r\n    event starClaimed(address owner);\r\n    event newStarName(string changedName);\r\n\r\n    constructor() public {\r\n        starName = \"Awesome Udacity Star\";\r\n    }\r\n\r\n    function changeName(string memory _name) public {\r\n        starName = _name;\r\n    }\r\n\r\n    function claimStar() public {\r\n        starOwner = msg.sender;\r\n        emit starClaimed(msg.sender);\r\n    }\r\n\r\n\r\n}",
  "sourcePath": "C:/Users/muham/OneDrive/Desktop/starNortaryV1/contracts/StarNotary.sol",
  "compiler": {
    "name": "solc",
    "version": "0.5.16+commit.9c3226ce.Emscripten.clang"
  },
  "schemaVersion": "3.3.1",
  "updatedAt": "2020-11-03T16:00:01.204Z",
  "networkType": "ethereum",
  "devdoc": {
    "methods": {}
  },
  "userdoc": {
    "methods": {}
  }
}